{
  "_format": "hh-sol-artifact-1",
  "contractName": "KeepItSafe",
  "sourceName": "contracts/KeepItSafe.sol",
  "abi": [
    {
      "inputs": [],
      "stateMutability": "nonpayable",
      "type": "constructor"
    },
    {
      "inputs": [
        {
          "internalType": "address",
          "name": "sender",
          "type": "address"
        },
        {
          "internalType": "uint256",
          "name": "tokenId",
          "type": "uint256"
        },
        {
          "internalType": "address",
          "name": "owner",
          "type": "address"
        }
      ],
      "name": "ERC721IncorrectOwner",
      "type": "error"
    },
    {
      "inputs": [
        {
          "internalType": "address",
          "name": "operator",
          "type": "address"
        },
        {
          "internalType": "uint256",
          "name": "tokenId",
          "type": "uint256"
        }
      ],
      "name": "ERC721InsufficientApproval",
      "type": "error"
    },
    {
      "inputs": [
        {
          "internalType": "address",
          "name": "approver",
          "type": "address"
        }
      ],
      "name": "ERC721InvalidApprover",
      "type": "error"
    },
    {
      "inputs": [
        {
          "internalType": "address",
          "name": "operator",
          "type": "address"
        }
      ],
      "name": "ERC721InvalidOperator",
      "type": "error"
    },
    {
      "inputs": [
        {
          "internalType": "address",
          "name": "owner",
          "type": "address"
        }
      ],
      "name": "ERC721InvalidOwner",
      "type": "error"
    },
    {
      "inputs": [
        {
          "internalType": "address",
          "name": "receiver",
          "type": "address"
        }
      ],
      "name": "ERC721InvalidReceiver",
      "type": "error"
    },
    {
      "inputs": [
        {
          "internalType": "address",
          "name": "sender",
          "type": "address"
        }
      ],
      "name": "ERC721InvalidSender",
      "type": "error"
    },
    {
      "inputs": [
        {
          "internalType": "uint256",
          "name": "tokenId",
          "type": "uint256"
        }
      ],
      "name": "ERC721NonexistentToken",
      "type": "error"
    },
    {
      "inputs": [],
      "name": "KeepItSafe__DomainAlreadyExists",
      "type": "error"
    },
    {
      "inputs": [],
      "name": "KeepItSafe__InstituteAlreadyExists",
      "type": "error"
    },
    {
      "inputs": [],
      "name": "KeepItSafe__InstituteCannotAddStudents",
      "type": "error"
    },
    {
      "inputs": [],
      "name": "KeepItSafe__InstituteDoesNotExists",
      "type": "error"
    },
    {
      "inputs": [],
      "name": "KeepItSafe__OnlyForInstituteRole",
      "type": "error"
    },
    {
      "inputs": [],
      "name": "KeepItSafe__OnlyForStudentRole",
      "type": "error"
    },
    {
      "inputs": [],
      "name": "KeepItSafe__StudentAlreadyExists",
      "type": "error"
    },
    {
      "inputs": [],
      "name": "KeepItSafe__StudentDoesNotExists",
      "type": "error"
    },
    {
      "inputs": [],
      "name": "XRC4907Storage__TokenIdLocked",
      "type": "error"
    },
    {
      "anonymous": false,
      "inputs": [
        {
          "indexed": true,
          "internalType": "address",
          "name": "owner",
          "type": "address"
        },
        {
          "indexed": true,
          "internalType": "address",
          "name": "approved",
          "type": "address"
        },
        {
          "indexed": true,
          "internalType": "uint256",
          "name": "tokenId",
          "type": "uint256"
        }
      ],
      "name": "Approval",
      "type": "event"
    },
    {
      "anonymous": false,
      "inputs": [
        {
          "indexed": true,
          "internalType": "address",
          "name": "owner",
          "type": "address"
        },
        {
          "indexed": true,
          "internalType": "address",
          "name": "operator",
          "type": "address"
        },
        {
          "indexed": false,
          "internalType": "bool",
          "name": "approved",
          "type": "bool"
        }
      ],
      "name": "ApprovalForAll",
      "type": "event"
    },
    {
      "anonymous": false,
      "inputs": [
        {
          "indexed": false,
          "internalType": "uint256",
          "name": "_fromTokenId",
          "type": "uint256"
        },
        {
          "indexed": false,
          "internalType": "uint256",
          "name": "_toTokenId",
          "type": "uint256"
        }
      ],
      "name": "BatchMetadataUpdate",
      "type": "event"
    },
    {
      "anonymous": false,
      "inputs": [
        {
          "indexed": false,
          "internalType": "uint256",
          "name": "_tokenId",
          "type": "uint256"
        }
      ],
      "name": "MetadataUpdate",
      "type": "event"
    },
    {
      "anonymous": false,
      "inputs": [
        {
          "indexed": true,
          "internalType": "address",
          "name": "from",
          "type": "address"
        },
        {
          "indexed": true,
          "internalType": "address",
          "name": "to",
          "type": "address"
        },
        {
          "indexed": true,
          "internalType": "uint256",
          "name": "tokenId",
          "type": "uint256"
        }
      ],
      "name": "Transfer",
      "type": "event"
    },
    {
      "anonymous": false,
      "inputs": [
        {
          "indexed": true,
          "internalType": "uint256",
          "name": "tokenId",
          "type": "uint256"
        },
        {
          "indexed": true,
          "internalType": "address",
          "name": "user",
          "type": "address"
        },
        {
          "indexed": false,
          "internalType": "uint64",
          "name": "expires",
          "type": "uint64"
        }
      ],
      "name": "UpdateUser",
      "type": "event"
    },
    {
      "inputs": [
        {
          "internalType": "string",
          "name": "_instituteName",
          "type": "string"
        },
        {
          "internalType": "string",
          "name": "_instituteLocation",
          "type": "string"
        },
        {
          "internalType": "string",
          "name": "_instituteDomain",
          "type": "string"
        }
      ],
      "name": "addInstitute",
      "outputs": [],
      "stateMutability": "nonpayable",
      "type": "function"
    },
    {
      "inputs": [
        {
          "internalType": "string",
          "name": "_studentName",
          "type": "string"
        },
        {
          "internalType": "address",
          "name": "_instituteAddress",
          "type": "address"
        },
        {
          "internalType": "string",
          "name": "_instituteDomain",
          "type": "string"
        }
      ],
      "name": "addStudent",
      "outputs": [],
      "stateMutability": "nonpayable",
      "type": "function"
    },
    {
      "inputs": [
        {
          "internalType": "address",
          "name": "to",
          "type": "address"
        },
        {
          "internalType": "uint256",
          "name": "tokenId",
          "type": "uint256"
        }
      ],
      "name": "approve",
      "outputs": [],
      "stateMutability": "nonpayable",
      "type": "function"
    },
    {
      "inputs": [
        {
          "internalType": "address",
          "name": "_studentAddress",
          "type": "address"
        },
        {
          "internalType": "string",
          "name": "_docType",
          "type": "string"
        },
        {
          "internalType": "string",
          "name": "_ipfsHash",
          "type": "string"
        },
        {
          "internalType": "uint64",
          "name": "_expiresIn",
          "type": "uint64"
        }
      ],
      "name": "approveDocumentRequest",
      "outputs": [],
      "stateMutability": "nonpayable",
      "type": "function"
    },
    {
      "inputs": [
        {
          "internalType": "address",
          "name": "owner",
          "type": "address"
        }
      ],
      "name": "balanceOf",
      "outputs": [
        {
          "internalType": "uint256",
          "name": "",
          "type": "uint256"
        }
      ],
      "stateMutability": "view",
      "type": "function"
    },
    {
      "inputs": [],
      "name": "getAllRequestsForInstitutes",
      "outputs": [
        {
          "components": [
            {
              "internalType": "address",
              "name": "student",
              "type": "address"
            },
            {
              "internalType": "string",
              "name": "docType",
              "type": "string"
            },
            {
              "internalType": "bool",
              "name": "exists",
              "type": "bool"
            }
          ],
          "internalType": "struct KeepItSafe.DocumentRequest[]",
          "name": "",
          "type": "tuple[]"
        }
      ],
      "stateMutability": "view",
      "type": "function"
    },
    {
      "inputs": [
        {
          "internalType": "address",
          "name": "_instituteAddress",
          "type": "address"
        }
      ],
      "name": "getAllStudentsOfInstitute",
      "outputs": [
        {
          "components": [
            {
              "internalType": "string",
              "name": "studentName",
              "type": "string"
            },
            {
              "internalType": "address",
              "name": "institueAddress",
              "type": "address"
            },
            {
              "internalType": "string",
              "name": "instituteDomain",
              "type": "string"
            },
            {
              "internalType": "bool",
              "name": "registered",
              "type": "bool"
            }
          ],
          "internalType": "struct KeepItSafe.Student[]",
          "name": "",
          "type": "tuple[]"
        }
      ],
      "stateMutability": "view",
      "type": "function"
    },
    {
      "inputs": [],
      "name": "getAllStudentsRequests",
      "outputs": [
        {
          "components": [
            {
              "internalType": "address",
              "name": "student",
              "type": "address"
            },
            {
              "internalType": "string",
              "name": "docType",
              "type": "string"
            },
            {
              "internalType": "bool",
              "name": "exists",
              "type": "bool"
            }
          ],
          "internalType": "struct KeepItSafe.DocumentRequest[]",
          "name": "",
          "type": "tuple[]"
        }
      ],
      "stateMutability": "view",
      "type": "function"
    },
    {
      "inputs": [
        {
          "internalType": "uint256",
          "name": "tokenId",
          "type": "uint256"
        }
      ],
      "name": "getApproved",
      "outputs": [
        {
          "internalType": "address",
          "name": "",
          "type": "address"
        }
      ],
      "stateMutability": "view",
      "type": "function"
    },
    {
      "inputs": [
        {
          "internalType": "address",
          "name": "_student",
          "type": "address"
        }
      ],
      "name": "getDocsForAStudent",
      "outputs": [
        {
          "components": [
            {
              "internalType": "string",
              "name": "docType",
              "type": "string"
            },
            {
              "internalType": "string",
              "name": "ipfsHash",
              "type": "string"
            },
            {
              "internalType": "uint256",
              "name": "expiresIn",
              "type": "uint256"
            },
            {
              "internalType": "uint256",
              "name": "tokenId",
              "type": "uint256"
            },
            {
              "internalType": "address",
              "name": "user",
              "type": "address"
            }
          ],
          "internalType": "struct XRC4907Storage.StudentDocs[]",
          "name": "",
          "type": "tuple[]"
        }
      ],
      "stateMutability": "view",
      "type": "function"
    },
    {
      "inputs": [
        {
          "internalType": "string",
          "name": "_domain",
          "type": "string"
        }
      ],
      "name": "getInstituteAddress",
      "outputs": [
        {
          "internalType": "address",
          "name": "",
          "type": "address"
        }
      ],
      "stateMutability": "view",
      "type": "function"
    },
    {
      "inputs": [
        {
          "internalType": "address",
          "name": "_instituteAddress",
          "type": "address"
        }
      ],
      "name": "getInstituteDetails",
      "outputs": [
        {
          "components": [
            {
              "internalType": "string",
              "name": "instituteName",
              "type": "string"
            },
            {
              "internalType": "string",
              "name": "instituteLocation",
              "type": "string"
            },
            {
              "internalType": "string",
              "name": "instituteDomain",
              "type": "string"
            },
            {
              "internalType": "bool",
              "name": "registered",
              "type": "bool"
            }
          ],
          "internalType": "struct KeepItSafe.Institute",
          "name": "",
          "type": "tuple"
        }
      ],
      "stateMutability": "view",
      "type": "function"
    },
    {
      "inputs": [
        {
          "internalType": "address",
          "name": "_studentAddress",
          "type": "address"
        }
      ],
      "name": "getStudentDetails",
      "outputs": [
        {
          "components": [
            {
              "internalType": "string",
              "name": "studentName",
              "type": "string"
            },
            {
              "internalType": "address",
              "name": "institueAddress",
              "type": "address"
            },
            {
              "internalType": "string",
              "name": "instituteDomain",
              "type": "string"
            },
            {
              "internalType": "bool",
              "name": "registered",
              "type": "bool"
            }
          ],
          "internalType": "struct KeepItSafe.Student",
          "name": "",
          "type": "tuple"
        }
      ],
      "stateMutability": "view",
      "type": "function"
    },
    {
      "inputs": [
        {
          "internalType": "uint256",
          "name": "_tokenId",
          "type": "uint256"
        }
      ],
      "name": "getStudentDocById",
      "outputs": [
        {
          "components": [
            {
              "internalType": "string",
              "name": "docType",
              "type": "string"
            },
            {
              "internalType": "string",
              "name": "ipfsHash",
              "type": "string"
            },
            {
              "internalType": "uint256",
              "name": "expiresIn",
              "type": "uint256"
            },
            {
              "internalType": "uint256",
              "name": "tokenId",
              "type": "uint256"
            },
            {
              "internalType": "address",
              "name": "user",
              "type": "address"
            }
          ],
          "internalType": "struct XRC4907Storage.StudentDocs",
          "name": "",
          "type": "tuple"
        }
      ],
      "stateMutability": "view",
      "type": "function"
    },
    {
      "inputs": [],
      "name": "getStudentDocs",
      "outputs": [
        {
          "components": [
            {
              "internalType": "string",
              "name": "docType",
              "type": "string"
            },
            {
              "internalType": "string",
              "name": "ipfsHash",
              "type": "string"
            },
            {
              "internalType": "uint256",
              "name": "expiresIn",
              "type": "uint256"
            },
            {
              "internalType": "uint256",
              "name": "tokenId",
              "type": "uint256"
            },
            {
              "internalType": "address",
              "name": "user",
              "type": "address"
            }
          ],
          "internalType": "struct XRC4907Storage.StudentDocs[]",
          "name": "",
          "type": "tuple[]"
        }
      ],
      "stateMutability": "view",
      "type": "function"
    },
    {
      "inputs": [],
      "name": "getYourRole",
      "outputs": [
        {
          "internalType": "enum KeepItSafe.Roles",
          "name": "",
          "type": "uint8"
        }
      ],
      "stateMutability": "view",
      "type": "function"
    },
    {
      "inputs": [
        {
          "internalType": "address",
          "name": "_student",
          "type": "address"
        }
      ],
      "name": "hasDocExpired",
      "outputs": [
        {
          "internalType": "bool",
          "name": "",
          "type": "bool"
        }
      ],
      "stateMutability": "nonpayable",
      "type": "function"
    },
    {
      "inputs": [
        {
          "internalType": "address",
          "name": "owner",
          "type": "address"
        },
        {
          "internalType": "address",
          "name": "operator",
          "type": "address"
        }
      ],
      "name": "isApprovedForAll",
      "outputs": [
        {
          "internalType": "bool",
          "name": "",
          "type": "bool"
        }
      ],
      "stateMutability": "view",
      "type": "function"
    },
    {
      "inputs": [
        {
          "internalType": "address",
          "name": "_owner",
          "type": "address"
        },
        {
          "internalType": "address",
          "name": "_to",
          "type": "address"
        },
        {
          "internalType": "string",
          "name": "_docType",
          "type": "string"
        },
        {
          "internalType": "string",
          "name": "_ipfsHash",
          "type": "string"
        },
        {
          "internalType": "uint64",
          "name": "_expiresIn",
          "type": "uint64"
        }
      ],
      "name": "mint",
      "outputs": [],
      "stateMutability": "nonpayable",
      "type": "function"
    },
    {
      "inputs": [],
      "name": "name",
      "outputs": [
        {
          "internalType": "string",
          "name": "",
          "type": "string"
        }
      ],
      "stateMutability": "view",
      "type": "function"
    },
    {
      "inputs": [
        {
          "internalType": "uint256",
          "name": "tokenId",
          "type": "uint256"
        }
      ],
      "name": "ownerOf",
      "outputs": [
        {
          "internalType": "address",
          "name": "",
          "type": "address"
        }
      ],
      "stateMutability": "view",
      "type": "function"
    },
    {
      "inputs": [
        {
          "internalType": "address",
          "name": "_instituteAddress",
          "type": "address"
        },
        {
          "internalType": "string",
          "name": "_docType",
          "type": "string"
        }
      ],
      "name": "requestDocument",
      "outputs": [],
      "stateMutability": "nonpayable",
      "type": "function"
    },
    {
      "inputs": [
        {
          "internalType": "address",
          "name": "from",
          "type": "address"
        },
        {
          "internalType": "address",
          "name": "to",
          "type": "address"
        },
        {
          "internalType": "uint256",
          "name": "tokenId",
          "type": "uint256"
        }
      ],
      "name": "safeTransferFrom",
      "outputs": [],
      "stateMutability": "nonpayable",
      "type": "function"
    },
    {
      "inputs": [
        {
          "internalType": "address",
          "name": "from",
          "type": "address"
        },
        {
          "internalType": "address",
          "name": "to",
          "type": "address"
        },
        {
          "internalType": "uint256",
          "name": "tokenId",
          "type": "uint256"
        },
        {
          "internalType": "bytes",
          "name": "data",
          "type": "bytes"
        }
      ],
      "name": "safeTransferFrom",
      "outputs": [],
      "stateMutability": "nonpayable",
      "type": "function"
    },
    {
      "inputs": [
        {
          "internalType": "address",
          "name": "operator",
          "type": "address"
        },
        {
          "internalType": "bool",
          "name": "approved",
          "type": "bool"
        }
      ],
      "name": "setApprovalForAll",
      "outputs": [],
      "stateMutability": "nonpayable",
      "type": "function"
    },
    {
      "inputs": [
        {
          "internalType": "uint256",
          "name": "tokenId",
          "type": "uint256"
        },
        {
          "internalType": "address",
          "name": "_user",
          "type": "address"
        },
        {
          "internalType": "uint64",
          "name": "expires",
          "type": "uint64"
        }
      ],
      "name": "setUser",
      "outputs": [],
      "stateMutability": "nonpayable",
      "type": "function"
    },
    {
      "inputs": [
        {
          "internalType": "bytes4",
          "name": "interfaceId",
          "type": "bytes4"
        }
      ],
      "name": "supportsInterface",
      "outputs": [
        {
          "internalType": "bool",
          "name": "",
          "type": "bool"
        }
      ],
      "stateMutability": "view",
      "type": "function"
    },
    {
      "inputs": [],
      "name": "symbol",
      "outputs": [
        {
          "internalType": "string",
          "name": "",
          "type": "string"
        }
      ],
      "stateMutability": "view",
      "type": "function"
    },
    {
      "inputs": [],
      "name": "time",
      "outputs": [
        {
          "internalType": "uint256",
          "name": "",
          "type": "uint256"
        }
      ],
      "stateMutability": "view",
      "type": "function"
    },
    {
      "inputs": [],
      "name": "tokenIdCounter",
      "outputs": [
        {
          "internalType": "uint256",
          "name": "",
          "type": "uint256"
        }
      ],
      "stateMutability": "view",
      "type": "function"
    },
    {
      "inputs": [
        {
          "internalType": "uint256",
          "name": "tokenId",
          "type": "uint256"
        }
      ],
      "name": "tokenURI",
      "outputs": [
        {
          "internalType": "string",
          "name": "",
          "type": "string"
        }
      ],
      "stateMutability": "view",
      "type": "function"
    },
    {
      "inputs": [
        {
          "internalType": "address",
          "name": "from",
          "type": "address"
        },
        {
          "internalType": "address",
          "name": "to",
          "type": "address"
        },
        {
          "internalType": "uint256",
          "name": "tokenId",
          "type": "uint256"
        }
      ],
      "name": "transferFrom",
      "outputs": [],
      "stateMutability": "nonpayable",
      "type": "function"
    },
    {
      "inputs": [
        {
          "internalType": "uint256",
          "name": "tokenId",
          "type": "uint256"
        }
      ],
      "name": "userExpires",
      "outputs": [
        {
          "internalType": "uint256",
          "name": "",
          "type": "uint256"
        }
      ],
      "stateMutability": "view",
      "type": "function"
    },
    {
      "inputs": [
        {
          "internalType": "uint256",
          "name": "tokenId",
          "type": "uint256"
        }
      ],
      "name": "userOf",
      "outputs": [
        {
          "internalType": "address",
          "name": "",
          "type": "address"
        }
      ],
      "stateMutability": "view",
      "type": "function"
    }
  ],
  "bytecode": "0x60806040523480156200001157600080fd5b506040518060400160405280600a81526020017f4b656570497453616665000000000000000000000000000000000000000000008152506040518060400160405280600381526020017f4b6953000000000000000000000000000000000000000000000000000000000081525081600090816200008f91906200032c565b508060019081620000a191906200032c565b505050600160068190555062000413565b600081519050919050565b7f4e487b7100000000000000000000000000000000000000000000000000000000600052604160045260246000fd5b7f4e487b7100000000000000000000000000000000000000000000000000000000600052602260045260246000fd5b600060028204905060018216806200013457607f821691505b6020821081036200014a5762000149620000ec565b5b50919050565b60008190508160005260206000209050919050565b60006020601f8301049050919050565b600082821b905092915050565b600060088302620001b47fffffffffffffffffffffffffffffffffffffffffffffffffffffffffffffffff8262000175565b620001c0868362000175565b95508019841693508086168417925050509392505050565b6000819050919050565b6000819050919050565b60006200020d620002076200020184620001d8565b620001e2565b620001d8565b9050919050565b6000819050919050565b6200022983620001ec565b62000241620002388262000214565b84845462000182565b825550505050565b600090565b6200025862000249565b620002658184846200021e565b505050565b5b818110156200028d57620002816000826200024e565b6001810190506200026b565b5050565b601f821115620002dc57620002a68162000150565b620002b18462000165565b81016020851015620002c1578190505b620002d9620002d08562000165565b8301826200026a565b50505b505050565b600082821c905092915050565b60006200030160001984600802620002e1565b1980831691505092915050565b60006200031c8383620002ee565b9150826002028217905092915050565b6200033782620000b2565b67ffffffffffffffff811115620003535762000352620000bd565b5b6200035f82546200011b565b6200036c82828562000291565b600060209050601f831160018114620003a457600084156200038f578287015190505b6200039b85826200030e565b8655506200040b565b601f198416620003b48662000150565b60005b82811015620003de57848901518255600182019150602085019450602081019050620003b7565b86831015620003fe5784890151620003fa601f891682620002ee565b8355505b6001600288020188555050505b505050505050565b615cfa80620004236000396000f3fe608060405234801561001057600080fd5b50600436106102065760003560e01c806393c540341161011a578063c87b56dd116100ad578063d4085e3b1161007c578063d4085e3b14610635578063e030565e14610665578063e985e9c514610681578063fb2cbb88146106b1578063fde82a37146106cf57610206565b8063c87b56dd14610587578063d0b371bd146105b7578063d16ce281146105e7578063d2fe04481461061757610206565b8063a22cb465116100e9578063a22cb465146104ef578063b88d4fde1461050b578063be569c1014610527578063c2f1f14a1461055757610206565b806393c540341461047b57806395d89b411461049757806398bdf6f5146104b55780639fea70d5146104d357610206565b806346510b851161019d57806376349c0d1161016c57806376349c0d146103c557806386398f63146103e1578063884c607f146104115780638f2fc3461461042d5780638fc88c481461044b57610206565b806346510b85146103175780634f8c57d1146103355780636352211e1461036557806370a082311461039557610206565b806316ada547116101d957806316ada547146102a557806323b872dd146102c35780632610e1d7146102df57806342842e0e146102fb57610206565b806301ffc9a71461020b57806306fdde031461023b578063081812fc14610259578063095ea7b314610289575b600080fd5b610225600480360381019061022091906144e7565b6106ff565b604051610232919061452f565b60405180910390f35b610243610779565b60405161025091906145da565b60405180910390f35b610273600480360381019061026e9190614632565b61080b565b60405161028091906146a0565b60405180910390f35b6102a3600480360381019061029e91906146e7565b610827565b005b6102ad61083d565b6040516102ba9190614736565b60405180910390f35b6102dd60048036038101906102d89190614751565b610845565b005b6102f960048036038101906102f491906148d9565b6108b3565b005b61031560048036038101906103109190614751565b610b76565b005b61031f610b96565b60405161032c9190614afa565b60405180910390f35b61034f600480360381019061034a9190614b1c565b61112e565b60405161035c9190614c75565b60405180910390f35b61037f600480360381019061037a9190614632565b611380565b60405161038c91906146a0565b60405180910390f35b6103af60048036038101906103aa9190614b1c565b611392565b6040516103bc9190614736565b60405180910390f35b6103df60048036038101906103da9190614c97565b61144c565b005b6103fb60048036038101906103f69190614d22565b61179f565b60405161040891906146a0565b60405180910390f35b61042b60048036038101906104269190614dab565b6117e7565b005b610435611c11565b6040516104429190614ed5565b60405180910390f35b61046560048036038101906104609190614632565b611c65565b6040516104729190614736565b60405180910390f35b61049560048036038101906104909190614ef0565b611ccb565b005b61049f611fad565b6040516104ac91906145da565b60405180910390f35b6104bd61203f565b6040516104ca9190614736565b60405180910390f35b6104ed60048036038101906104e89190614f4c565b612045565b005b61050960048036038101906105049190615017565b612336565b005b610525600480360381019061052091906150f8565b61234c565b005b610541600480360381019061053c9190614b1c565b612369565b60405161054e919061452f565b60405180910390f35b610571600480360381019061056c9190614632565b61246b565b60405161057e91906146a0565b60405180910390f35b6105a1600480360381019061059c9190614632565b6124d9565b6040516105ae91906145da565b60405180910390f35b6105d160048036038101906105cc9190614b1c565b6124eb565b6040516105de91906151e5565b60405180910390f35b61060160048036038101906105fc9190614b1c565b6126d9565b60405161060e9190615355565b60405180910390f35b61061f6129e4565b60405161062c9190614afa565b60405180910390f35b61064f600480360381019061064a9190614b1c565b612d92565b60405161065c91906153e8565b60405180910390f35b61067f600480360381019061067a919061540a565b612fbc565b005b61069b6004803603810190610696919061545d565b61302f565b6040516106a8919061452f565b60405180910390f35b6106b96130c3565b6040516106c69190615355565b60405180910390f35b6106e960048036038101906106e49190614632565b61317c565b6040516106f6919061551a565b60405180910390f35b60007fad092b5c000000000000000000000000000000000000000000000000000000007bffffffffffffffffffffffffffffffffffffffffffffffffffffffff1916827bffffffffffffffffffffffffffffffffffffffffffffffffffffffff19161480610772575061077182613337565b5b9050919050565b6060600080546107889061556b565b80601f01602080910402602001604051908101604052809291908181526020018280546107b49061556b565b80156108015780601f106107d657610100808354040283529160200191610801565b820191906000526020600020905b8154815290600101906020018083116107e457829003601f168201915b5050505050905090565b600061081682613398565b5061082082613420565b9050919050565b610839828261083461345d565b613465565b5050565b600042905090565b600115156009600083815260200190815260200160002060009054906101000a900460ff161515036108a3576040517ff528582f00000000000000000000000000000000000000000000000000000000815260040160405180910390fd5b6108ae838383610b76565b505050565b60011515600c60003373ffffffffffffffffffffffffffffffffffffffff1673ffffffffffffffffffffffffffffffffffffffff16815260200190815260200160002060030160009054906101000a900460ff16151503610940576040517f084c8b4800000000000000000000000000000000000000000000000000000000815260040160405180910390fd5b600073ffffffffffffffffffffffffffffffffffffffff16600e8260405161096891906155d8565b908152602001604051809103902060009054906101000a900473ffffffffffffffffffffffffffffffffffffffff1673ffffffffffffffffffffffffffffffffffffffff16146109e4576040517fab1f95c700000000000000000000000000000000000000000000000000000000815260040160405180910390fd5b604051806080016040528084815260200183815260200182815260200160011515815250600c60003373ffffffffffffffffffffffffffffffffffffffff1673ffffffffffffffffffffffffffffffffffffffff1681526020019081526020016000206000820151816000019081610a5c919061579b565b506020820151816001019081610a72919061579b565b506040820151816002019081610a88919061579b565b5060608201518160030160006101000a81548160ff0219169083151502179055509050506001600b60003373ffffffffffffffffffffffffffffffffffffffff1673ffffffffffffffffffffffffffffffffffffffff16815260200190815260200160002060006101000a81548160ff02191690836002811115610b0f57610b0e614e5e565b5b021790555033600e82604051610b2591906155d8565b908152602001604051809103902060006101000a81548173ffffffffffffffffffffffffffffffffffffffff021916908373ffffffffffffffffffffffffffffffffffffffff160217905550505050565b610b918383836040518060200160405280600081525061234c565b505050565b6060600080600090505b601060003373ffffffffffffffffffffffffffffffffffffffff1673ffffffffffffffffffffffffffffffffffffffff16815260200190815260200160002080549050811015610cc857600f6000601060003373ffffffffffffffffffffffffffffffffffffffff1673ffffffffffffffffffffffffffffffffffffffff1681526020019081526020016000208381548110610c3f57610c3e61586d565b5b9060005260206000200160009054906101000a900473ffffffffffffffffffffffffffffffffffffffff1673ffffffffffffffffffffffffffffffffffffffff1673ffffffffffffffffffffffffffffffffffffffff1681526020019081526020016000208054905082610cb391906158cb565b91508080610cc0906158ff565b915050610ba0565b5060008167ffffffffffffffff811115610ce557610ce46147ae565b5b604051908082528060200260200182016040528015610d1e57816020015b610d0b614393565b815260200190600190039081610d035790505b5090506000805b601060003373ffffffffffffffffffffffffffffffffffffffff1673ffffffffffffffffffffffffffffffffffffffff16815260200190815260200160002080549050811015611073576000601060003373ffffffffffffffffffffffffffffffffffffffff1673ffffffffffffffffffffffffffffffffffffffff1681526020019081526020016000208281548110610dc257610dc161586d565b5b9060005260206000200160009054906101000a900473ffffffffffffffffffffffffffffffffffffffff16905060005b600f60008373ffffffffffffffffffffffffffffffffffffffff1673ffffffffffffffffffffffffffffffffffffffff1681526020019081526020016000208054905081101561105e57600f60008373ffffffffffffffffffffffffffffffffffffffff1673ffffffffffffffffffffffffffffffffffffffff1681526020019081526020016000208181548110610e8d57610e8c61586d565b5b906000526020600020906003020160020160009054906101000a900460ff161561104b57600f60008373ffffffffffffffffffffffffffffffffffffffff1673ffffffffffffffffffffffffffffffffffffffff1681526020019081526020016000208181548110610f0257610f0161586d565b5b90600052602060002090600302016040518060600160405290816000820160009054906101000a900473ffffffffffffffffffffffffffffffffffffffff1673ffffffffffffffffffffffffffffffffffffffff1673ffffffffffffffffffffffffffffffffffffffff168152602001600182018054610f819061556b565b80601f0160208091040260200160405190810160405280929190818152602001828054610fad9061556b565b8015610ffa5780601f10610fcf57610100808354040283529160200191610ffa565b820191906000526020600020905b815481529060010190602001808311610fdd57829003601f168201915b505050505081526020016002820160009054906101000a900460ff1615151515815250508585815181106110315761103061586d565b5b60200260200101819052508380611047906158ff565b9450505b8080611056906158ff565b915050610df2565b5050808061106b906158ff565b915050610d25565b5060008167ffffffffffffffff8111156110905761108f6147ae565b5b6040519080825280602002602001820160405280156110c957816020015b6110b6614393565b8152602001906001900390816110ae5790505b50905060005b82811015611123578381815181106110ea576110e961586d565b5b60200260200101518282815181106111055761110461586d565b5b6020026020010181905250808061111b906158ff565b9150506110cf565b508094505050505090565b60606001600281111561114457611143614e5e565b5b600b60003373ffffffffffffffffffffffffffffffffffffffff1673ffffffffffffffffffffffffffffffffffffffff16815260200190815260200160002060009054906101000a900460ff1660028111156111a3576111a2614e5e565b5b146111da576040517f39ba880400000000000000000000000000000000000000000000000000000000815260040160405180910390fd5b6000601060003373ffffffffffffffffffffffffffffffffffffffff1673ffffffffffffffffffffffffffffffffffffffff1681526020019081526020016000208054905067ffffffffffffffff811115611238576112376147ae565b5b60405190808252806020026020018201604052801561127157816020015b61125e6143cc565b8152602001906001900390816112565790505b50905060005b601060003373ffffffffffffffffffffffffffffffffffffffff1673ffffffffffffffffffffffffffffffffffffffff1681526020019081526020016000208054905081101561137657611345601060003373ffffffffffffffffffffffffffffffffffffffff1673ffffffffffffffffffffffffffffffffffffffff16815260200190815260200160002082815481106113155761131461586d565b5b9060005260206000200160009054906101000a900473ffffffffffffffffffffffffffffffffffffffff166124eb565b8282815181106113585761135761586d565b5b6020026020010181905250808061136e906158ff565b915050611277565b5080915050919050565b600061138b82613398565b9050919050565b60008073ffffffffffffffffffffffffffffffffffffffff168273ffffffffffffffffffffffffffffffffffffffff16036114055760006040517f89c62b640000000000000000000000000000000000000000000000000000000081526004016113fc91906146a0565b60405180910390fd5b600360008373ffffffffffffffffffffffffffffffffffffffff1673ffffffffffffffffffffffffffffffffffffffff168152602001908152602001600020549050919050565b60011515600d60003373ffffffffffffffffffffffffffffffffffffffff1673ffffffffffffffffffffffffffffffffffffffff16815260200190815260200160002060030160009054906101000a900460ff161515036114d9576040517fd575adb800000000000000000000000000000000000000000000000000000000815260040160405180910390fd5b600160028111156114ed576114ec614e5e565b5b600b60003373ffffffffffffffffffffffffffffffffffffffff1673ffffffffffffffffffffffffffffffffffffffff16815260200190815260200160002060009054906101000a900460ff16600281111561154c5761154b614e5e565b5b03611583576040517fc5b7cc6300000000000000000000000000000000000000000000000000000000815260040160405180910390fd5b6002600b60003373ffffffffffffffffffffffffffffffffffffffff1673ffffffffffffffffffffffffffffffffffffffff16815260200190815260200160002060006101000a81548160ff021916908360028111156115e6576115e5614e5e565b5b0217905550601060008373ffffffffffffffffffffffffffffffffffffffff1673ffffffffffffffffffffffffffffffffffffffff168152602001908152602001600020339080600181540180825580915050600190039060005260206000200160009091909190916101000a81548173ffffffffffffffffffffffffffffffffffffffff021916908373ffffffffffffffffffffffffffffffffffffffff16021790555060405180608001604052808481526020018373ffffffffffffffffffffffffffffffffffffffff16815260200182815260200160011515815250600d60003373ffffffffffffffffffffffffffffffffffffffff1673ffffffffffffffffffffffffffffffffffffffff1681526020019081526020016000206000820151816000019081611719919061579b565b5060208201518160010160006101000a81548173ffffffffffffffffffffffffffffffffffffffff021916908373ffffffffffffffffffffffffffffffffffffffff1602179055506040820151816002019081611776919061579b565b5060608201518160030160006101000a81548160ff021916908315150217905550905050505050565b6000600e826040516117b191906155d8565b908152602001604051809103902060009054906101000a900473ffffffffffffffffffffffffffffffffffffffff169050919050565b6000600654905060066000815480929190611801906158ff565b91905055506040518060a001604052808581526020018481526020018367ffffffffffffffff1681526020018281526020018773ffffffffffffffffffffffffffffffffffffffff16815250600760008381526020019081526020016000206000820151816000019081611875919061579b565b50602082015181600101908161188b919061579b565b50604082015181600201556060820151816003015560808201518160040160006101000a81548173ffffffffffffffffffffffffffffffffffffffff021916908373ffffffffffffffffffffffffffffffffffffffff16021790555090505060008267ffffffffffffffff1603611b49576119068582613477565b6119108184613570565b60016009600083815260200190815260200160002060006101000a81548160ff02191690831515021790555060405160200161194b90615993565b604051602081830303815290604052805190602001208460405160200161197291906155d8565b60405160208183030381529060405280519060200120036119ea5780600860008873ffffffffffffffffffffffffffffffffffffffff1673ffffffffffffffffffffffffffffffffffffffff1681526020019081526020016000206000600481106119e0576119df61586d565b5b0181905550611b44565b6040516020016119f9906159f4565b6040516020818303038152906040528051906020012084604051602001611a2091906155d8565b6040516020818303038152906040528051906020012003611a985780600860008873ffffffffffffffffffffffffffffffffffffffff1673ffffffffffffffffffffffffffffffffffffffff168152602001908152602001600020600160048110611a8e57611a8d61586d565b5b0181905550611b43565b604051602001611aa790615a55565b6040516020818303038152906040528051906020012084604051602001611ace91906155d8565b6040516020818303038152906040528051906020012003611b425780600860008873ffffffffffffffffffffffffffffffffffffffff1673ffffffffffffffffffffffffffffffffffffffff168152602001908152602001600020600260048110611b3c57611b3b61586d565b5b01819055505b5b5b611c09565b611b538682613477565b611b5e818684612fbc565b604051602001611b6d90615ab6565b6040516020818303038152906040528051906020012084604051602001611b9491906155d8565b6040516020818303038152906040528051906020012003611c085780600860008773ffffffffffffffffffffffffffffffffffffffff1673ffffffffffffffffffffffffffffffffffffffff168152602001908152602001600020600360048110611c0257611c0161586d565b5b01819055505b5b505050505050565b6000600b60003373ffffffffffffffffffffffffffffffffffffffff1673ffffffffffffffffffffffffffffffffffffffff16815260200190815260200160002060009054906101000a900460ff16905090565b600042600760008481526020019081526020016000206002015410611ca25760076000838152602001908152602001600020600201549050611cc6565b7fffffffffffffffffffffffffffffffffffffffffffffffffffffffffffffffff90505b919050565b600280811115611cde57611cdd614e5e565b5b600b60003373ffffffffffffffffffffffffffffffffffffffff1673ffffffffffffffffffffffffffffffffffffffff16815260200190815260200160002060009054906101000a900460ff166002811115611d3d57611d3c614e5e565b5b14611d74576040517f777ab36c00000000000000000000000000000000000000000000000000000000815260040160405180910390fd5b60001515600c60008473ffffffffffffffffffffffffffffffffffffffff1673ffffffffffffffffffffffffffffffffffffffff16815260200190815260200160002060030160009054906101000a900460ff16151503611e01576040517f57304c6600000000000000000000000000000000000000000000000000000000815260040160405180910390fd5b60001515600d60003373ffffffffffffffffffffffffffffffffffffffff1673ffffffffffffffffffffffffffffffffffffffff16815260200190815260200160002060030160009054906101000a900460ff16151503611e8e576040517ff46ab27d00000000000000000000000000000000000000000000000000000000815260040160405180910390fd5b600f60003373ffffffffffffffffffffffffffffffffffffffff1673ffffffffffffffffffffffffffffffffffffffff16815260200190815260200160002060405180606001604052803373ffffffffffffffffffffffffffffffffffffffff16815260200183815260200160011515815250908060018154018082558091505060019003906000526020600020906003020160009091909190915060008201518160000160006101000a81548173ffffffffffffffffffffffffffffffffffffffff021916908373ffffffffffffffffffffffffffffffffffffffff1602179055506020820151816001019081611f86919061579b565b5060408201518160020160006101000a81548160ff02191690831515021790555050505050565b606060018054611fbc9061556b565b80601f0160208091040260200160405190810160405280929190818152602001828054611fe89061556b565b80156120355780601f1061200a57610100808354040283529160200191612035565b820191906000526020600020905b81548152906001019060200180831161201857829003601f168201915b5050505050905090565b60065481565b6001600281111561205957612058614e5e565b5b600b60003373ffffffffffffffffffffffffffffffffffffffff1673ffffffffffffffffffffffffffffffffffffffff16815260200190815260200160002060009054906101000a900460ff1660028111156120b8576120b7614e5e565b5b146120ef576040517f39ba880400000000000000000000000000000000000000000000000000000000815260040160405180910390fd5b60005b600f60008673ffffffffffffffffffffffffffffffffffffffff1673ffffffffffffffffffffffffffffffffffffffff168152602001908152602001600020805490508110156122fc57600f60008673ffffffffffffffffffffffffffffffffffffffff1673ffffffffffffffffffffffffffffffffffffffff168152602001908152602001600020818154811061218d5761218c61586d565b5b906000526020600020906003020160020160009054906101000a900460ff1680156122645750836040516020016121c491906155d8565b60405160208183030381529060405280519060200120600f60008773ffffffffffffffffffffffffffffffffffffffff1673ffffffffffffffffffffffffffffffffffffffff168152602001908152602001600020828154811061222b5761222a61586d565b5b906000526020600020906003020160010160405160200161224c9190615b4e565b60405160208183030381529060405280519060200120145b156122e9576000600f60008773ffffffffffffffffffffffffffffffffffffffff1673ffffffffffffffffffffffffffffffffffffffff16815260200190815260200160002082815481106122bc576122bb61586d565b5b906000526020600020906003020160020160006101000a81548160ff0219169083151502179055506122fc565b80806122f4906158ff565b9150506120f2565b5060008167ffffffffffffffff16036123225761231d8485858560006117e7565b612330565b61232f33858585856117e7565b5b50505050565b61234861234161345d565b83836135cc565b5050565b612357848484610845565b6123638484848461373b565b50505050565b600080600860008473ffffffffffffffffffffffffffffffffffffffff1673ffffffffffffffffffffffffffffffffffffffff1681526020019081526020016000206003600481106123be576123bd61586d565b5b015490508273ffffffffffffffffffffffffffffffffffffffff166123e28261246b565b73ffffffffffffffffffffffffffffffffffffffff1603612460576000600860008573ffffffffffffffffffffffffffffffffffffffff1673ffffffffffffffffffffffffffffffffffffffff1681526020019081526020016000206003600481106124515761245061586d565b5b01819055506001915050612466565b60009150505b919050565b6000426007600084815260200190815260200160002060020154106124c8576007600083815260200190815260200160002060040160009054906101000a900473ffffffffffffffffffffffffffffffffffffffff1690506124d4565b6124d182611380565b90505b919050565b60606124e4826138f2565b9050919050565b6124f36143cc565b600d60008373ffffffffffffffffffffffffffffffffffffffff1673ffffffffffffffffffffffffffffffffffffffff16815260200190815260200160002060405180608001604052908160008201805461254d9061556b565b80601f01602080910402602001604051908101604052809291908181526020018280546125799061556b565b80156125c65780601f1061259b576101008083540402835291602001916125c6565b820191906000526020600020905b8154815290600101906020018083116125a957829003601f168201915b505050505081526020016001820160009054906101000a900473ffffffffffffffffffffffffffffffffffffffff1673ffffffffffffffffffffffffffffffffffffffff1673ffffffffffffffffffffffffffffffffffffffff1681526020016002820180546126359061556b565b80601f01602080910402602001604051908101604052809291908181526020018280546126619061556b565b80156126ae5780601f10612683576101008083540402835291602001916126ae565b820191906000526020600020905b81548152906001019060200180831161269157829003601f168201915b505050505081526020016003820160009054906101000a900460ff1615151515815250509050919050565b60606000600467ffffffffffffffff8111156126f8576126f76147ae565b5b60405190808252806020026020018201604052801561273157816020015b61271e61440c565b8152602001906001900390816127165790505b5090506000805b60048110156129d9576000600860008773ffffffffffffffffffffffffffffffffffffffff1673ffffffffffffffffffffffffffffffffffffffff16815260200190815260200160002082600481106127945761279361586d565b5b0154146129c65760076000600860008873ffffffffffffffffffffffffffffffffffffffff1673ffffffffffffffffffffffffffffffffffffffff16815260200190815260200160002083600481106127f0576127ef61586d565b5b015481526020019081526020016000206040518060a001604052908160008201805461281b9061556b565b80601f01602080910402602001604051908101604052809291908181526020018280546128479061556b565b80156128945780601f1061286957610100808354040283529160200191612894565b820191906000526020600020905b81548152906001019060200180831161287757829003601f168201915b505050505081526020016001820180546128ad9061556b565b80601f01602080910402602001604051908101604052809291908181526020018280546128d99061556b565b80156129265780601f106128fb57610100808354040283529160200191612926565b820191906000526020600020905b81548152906001019060200180831161290957829003601f168201915b5050505050815260200160028201548152602001600382015481526020016004820160009054906101000a900473ffffffffffffffffffffffffffffffffffffffff1673ffffffffffffffffffffffffffffffffffffffff1673ffffffffffffffffffffffffffffffffffffffff16815250508383815181106129ac576129ab61586d565b5b602002602001018190525081806129c2906158ff565b9250505b80806129d1906158ff565b915050612738565b508192505050919050565b60606002808111156129f9576129f8614e5e565b5b600b60003373ffffffffffffffffffffffffffffffffffffffff1673ffffffffffffffffffffffffffffffffffffffff16815260200190815260200160002060009054906101000a900460ff166002811115612a5857612a57614e5e565b5b14612a8f576040517f777ab36c00000000000000000000000000000000000000000000000000000000815260040160405180910390fd5b6000600f60003373ffffffffffffffffffffffffffffffffffffffff1673ffffffffffffffffffffffffffffffffffffffff1681526020019081526020016000208054905067ffffffffffffffff811115612aed57612aec6147ae565b5b604051908082528060200260200182016040528015612b2657816020015b612b13614393565b815260200190600190039081612b0b5790505b50905060005b600f60003373ffffffffffffffffffffffffffffffffffffffff1673ffffffffffffffffffffffffffffffffffffffff16815260200190815260200160002080549050811015612d8a57600f60003373ffffffffffffffffffffffffffffffffffffffff1673ffffffffffffffffffffffffffffffffffffffff1681526020019081526020016000208181548110612bc757612bc661586d565b5b906000526020600020906003020160020160009054906101000a900460ff1615612d7757600f60003373ffffffffffffffffffffffffffffffffffffffff1673ffffffffffffffffffffffffffffffffffffffff1681526020019081526020016000208181548110612c3c57612c3b61586d565b5b90600052602060002090600302016040518060600160405290816000820160009054906101000a900473ffffffffffffffffffffffffffffffffffffffff1673ffffffffffffffffffffffffffffffffffffffff1673ffffffffffffffffffffffffffffffffffffffff168152602001600182018054612cbb9061556b565b80601f0160208091040260200160405190810160405280929190818152602001828054612ce79061556b565b8015612d345780601f10612d0957610100808354040283529160200191612d34565b820191906000526020600020905b815481529060010190602001808311612d1757829003601f168201915b505050505081526020016002820160009054906101000a900460ff161515151581525050828281518110612d6b57612d6a61586d565b5b60200260200101819052505b8080612d82906158ff565b915050612b2c565b508091505090565b612d9a614451565b600c60008373ffffffffffffffffffffffffffffffffffffffff1673ffffffffffffffffffffffffffffffffffffffff168152602001908152602001600020604051806080016040529081600082018054612df49061556b565b80601f0160208091040260200160405190810160405280929190818152602001828054612e209061556b565b8015612e6d5780601f10612e4257610100808354040283529160200191612e6d565b820191906000526020600020905b815481529060010190602001808311612e5057829003601f168201915b50505050508152602001600182018054612e869061556b565b80601f0160208091040260200160405190810160405280929190818152602001828054612eb29061556b565b8015612eff5780601f10612ed457610100808354040283529160200191612eff565b820191906000526020600020905b815481529060010190602001808311612ee257829003601f168201915b50505050508152602001600282018054612f189061556b565b80601f0160208091040260200160405190810160405280929190818152602001828054612f449061556b565b8015612f915780601f10612f6657610100808354040283529160200191612f91565b820191906000526020600020905b815481529060010190602001808311612f7457829003601f168201915b505050505081526020016003820160009054906101000a900460ff1615151515815250509050919050565b6000600760008581526020019081526020016000209050828160040160006101000a81548173ffffffffffffffffffffffffffffffffffffffff021916908373ffffffffffffffffffffffffffffffffffffffff1602179055508167ffffffffffffffff16816002018190555050505050565b6000600560008473ffffffffffffffffffffffffffffffffffffffff1673ffffffffffffffffffffffffffffffffffffffff16815260200190815260200160002060008373ffffffffffffffffffffffffffffffffffffffff1673ffffffffffffffffffffffffffffffffffffffff16815260200190815260200160002060009054906101000a900460ff16905092915050565b60606002808111156130d8576130d7614e5e565b5b600b60003373ffffffffffffffffffffffffffffffffffffffff1673ffffffffffffffffffffffffffffffffffffffff16815260200190815260200160002060009054906101000a900460ff16600281111561313757613136614e5e565b5b1461316e576040517f777ab36c00000000000000000000000000000000000000000000000000000000815260040160405180910390fd5b613177336126d9565b905090565b61318461440c565b600760008381526020019081526020016000206040518060a00160405290816000820180546131b29061556b565b80601f01602080910402602001604051908101604052809291908181526020018280546131de9061556b565b801561322b5780601f106132005761010080835404028352916020019161322b565b820191906000526020600020905b81548152906001019060200180831161320e57829003601f168201915b505050505081526020016001820180546132449061556b565b80601f01602080910402602001604051908101604052809291908181526020018280546132709061556b565b80156132bd5780601f10613292576101008083540402835291602001916132bd565b820191906000526020600020905b8154815290600101906020018083116132a057829003601f168201915b5050505050815260200160028201548152602001600382015481526020016004820160009054906101000a900473ffffffffffffffffffffffffffffffffffffffff1673ffffffffffffffffffffffffffffffffffffffff1673ffffffffffffffffffffffffffffffffffffffff16815250509050919050565b6000634906490660e01b7bffffffffffffffffffffffffffffffffffffffffffffffffffffffff1916827bffffffffffffffffffffffffffffffffffffffffffffffffffffffff19161480613391575061339082613a05565b5b9050919050565b6000806133a483613ae7565b9050600073ffffffffffffffffffffffffffffffffffffffff168173ffffffffffffffffffffffffffffffffffffffff160361341757826040517f7e27328900000000000000000000000000000000000000000000000000000000815260040161340e9190614736565b60405180910390fd5b80915050919050565b60006004600083815260200190815260200160002060009054906101000a900473ffffffffffffffffffffffffffffffffffffffff169050919050565b600033905090565b6134728383836001613b24565b505050565b600073ffffffffffffffffffffffffffffffffffffffff168273ffffffffffffffffffffffffffffffffffffffff16036134e95760006040517f64a0ae920000000000000000000000000000000000000000000000000000000081526004016134e091906146a0565b60405180910390fd5b60006134f783836000613ce9565b9050600073ffffffffffffffffffffffffffffffffffffffff168173ffffffffffffffffffffffffffffffffffffffff161461356b5760006040517f73c6ac6e00000000000000000000000000000000000000000000000000000000815260040161356291906146a0565b60405180910390fd5b505050565b80600a60008481526020019081526020016000209081613590919061579b565b507ff8e1a15aba9398e019f0b49df1a4fde98ee17ae345cb5f6b5e2c27f5033e8ce7826040516135c09190614736565b60405180910390a15050565b600073ffffffffffffffffffffffffffffffffffffffff168273ffffffffffffffffffffffffffffffffffffffff160361363d57816040517f5b08ba1800000000000000000000000000000000000000000000000000000000815260040161363491906146a0565b60405180910390fd5b80600560008573ffffffffffffffffffffffffffffffffffffffff1673ffffffffffffffffffffffffffffffffffffffff16815260200190815260200160002060008473ffffffffffffffffffffffffffffffffffffffff1673ffffffffffffffffffffffffffffffffffffffff16815260200190815260200160002060006101000a81548160ff0219169083151502179055508173ffffffffffffffffffffffffffffffffffffffff168373ffffffffffffffffffffffffffffffffffffffff167f17307eab39ab6107e8899845ad3d59bd9653f200f220920489ca2b5937696c318360405161372e919061452f565b60405180910390a3505050565b60008373ffffffffffffffffffffffffffffffffffffffff163b11156138ec578273ffffffffffffffffffffffffffffffffffffffff1663150b7a0261377f61345d565b8685856040518563ffffffff1660e01b81526004016137a19493929190615bba565b6020604051808303816000875af19250505080156137dd57506040513d601f19601f820116820180604052508101906137da9190615c1b565b60015b613861573d806000811461380d576040519150601f19603f3d011682016040523d82523d6000602084013e613812565b606091505b50600081510361385957836040517f64a0ae9200000000000000000000000000000000000000000000000000000000815260040161385091906146a0565b60405180910390fd5b805181602001fd5b63150b7a0260e01b7bffffffffffffffffffffffffffffffffffffffffffffffffffffffff1916817bffffffffffffffffffffffffffffffffffffffffffffffffffffffff1916146138ea57836040517f64a0ae920000000000000000000000000000000000000000000000000000000081526004016138e191906146a0565b60405180910390fd5b505b50505050565b60606138fd82613398565b506000600a6000848152602001908152602001600020805461391e9061556b565b80601f016020809104026020016040519081016040528092919081815260200182805461394a9061556b565b80156139975780601f1061396c57610100808354040283529160200191613997565b820191906000526020600020905b81548152906001019060200180831161397a57829003601f168201915b5050505050905060006139a8613f03565b905060008151036139bd578192505050613a00565b6000825111156139f25780826040516020016139da929190615c48565b60405160208183030381529060405292505050613a00565b6139fb84613f1a565b925050505b919050565b60007f80ac58cd000000000000000000000000000000000000000000000000000000007bffffffffffffffffffffffffffffffffffffffffffffffffffffffff1916827bffffffffffffffffffffffffffffffffffffffffffffffffffffffff19161480613ad057507f5b5e139f000000000000000000000000000000000000000000000000000000007bffffffffffffffffffffffffffffffffffffffffffffffffffffffff1916827bffffffffffffffffffffffffffffffffffffffffffffffffffffffff1916145b80613ae05750613adf82613f83565b5b9050919050565b60006002600083815260200190815260200160002060009054906101000a900473ffffffffffffffffffffffffffffffffffffffff169050919050565b8080613b5d5750600073ffffffffffffffffffffffffffffffffffffffff168273ffffffffffffffffffffffffffffffffffffffff1614155b15613c91576000613b6d84613398565b9050600073ffffffffffffffffffffffffffffffffffffffff168373ffffffffffffffffffffffffffffffffffffffff1614158015613bd857508273ffffffffffffffffffffffffffffffffffffffff168173ffffffffffffffffffffffffffffffffffffffff1614155b8015613beb5750613be9818461302f565b155b15613c2d57826040517fa9fbf51f000000000000000000000000000000000000000000000000000000008152600401613c2491906146a0565b60405180910390fd5b8115613c8f57838573ffffffffffffffffffffffffffffffffffffffff168273ffffffffffffffffffffffffffffffffffffffff167f8c5be1e5ebec7d5bd14f71427d1e84f3dd0314c0f7b2291e5b200ac8c7c3b92560405160405180910390a45b505b836004600085815260200190815260200160002060006101000a81548173ffffffffffffffffffffffffffffffffffffffff021916908373ffffffffffffffffffffffffffffffffffffffff16021790555050505050565b600080613cf584613ae7565b9050600073ffffffffffffffffffffffffffffffffffffffff168373ffffffffffffffffffffffffffffffffffffffff1614613d3757613d36818486613fed565b5b600073ffffffffffffffffffffffffffffffffffffffff168173ffffffffffffffffffffffffffffffffffffffff1614613dc857613d79600085600080613b24565b6001600360008373ffffffffffffffffffffffffffffffffffffffff1673ffffffffffffffffffffffffffffffffffffffff168152602001908152602001600020600082825403925050819055505b600073ffffffffffffffffffffffffffffffffffffffff168573ffffffffffffffffffffffffffffffffffffffff1614613e4b576001600360008773ffffffffffffffffffffffffffffffffffffffff1673ffffffffffffffffffffffffffffffffffffffff168152602001908152602001600020600082825401925050819055505b846002600086815260200190815260200160002060006101000a81548173ffffffffffffffffffffffffffffffffffffffff021916908373ffffffffffffffffffffffffffffffffffffffff160217905550838573ffffffffffffffffffffffffffffffffffffffff168273ffffffffffffffffffffffffffffffffffffffff167fddf252ad1be2c89b69c2b068fc378daa952ba7f163c4a11628f55a4df523b3ef60405160405180910390a4809150509392505050565b606060405180602001604052806000815250905090565b6060613f2582613398565b506000613f30613f03565b90506000815111613f505760405180602001604052806000815250613f7b565b80613f5a846140b1565b604051602001613f6b929190615c48565b6040516020818303038152906040525b915050919050565b60007f01ffc9a7000000000000000000000000000000000000000000000000000000007bffffffffffffffffffffffffffffffffffffffffffffffffffffffff1916827bffffffffffffffffffffffffffffffffffffffffffffffffffffffff1916149050919050565b613ff883838361417f565b6140ac57600073ffffffffffffffffffffffffffffffffffffffff168373ffffffffffffffffffffffffffffffffffffffff160361406d57806040517f7e2732890000000000000000000000000000000000000000000000000000000081526004016140649190614736565b60405180910390fd5b81816040517f177e802f0000000000000000000000000000000000000000000000000000000081526004016140a3929190615c6c565b60405180910390fd5b505050565b6060600060016140c084614240565b01905060008167ffffffffffffffff8111156140df576140de6147ae565b5b6040519080825280601f01601f1916602001820160405280156141115781602001600182028036833780820191505090505b509050600082602001820190505b600115614174578080600190039150507f3031323334353637383961626364656600000000000000000000000000000000600a86061a8153600a858161416857614167615c95565b5b0494506000850361411f575b819350505050919050565b60008073ffffffffffffffffffffffffffffffffffffffff168373ffffffffffffffffffffffffffffffffffffffff161415801561423757508273ffffffffffffffffffffffffffffffffffffffff168473ffffffffffffffffffffffffffffffffffffffff1614806141f857506141f7848461302f565b5b8061423657508273ffffffffffffffffffffffffffffffffffffffff1661421e83613420565b73ffffffffffffffffffffffffffffffffffffffff16145b5b90509392505050565b600080600090507a184f03e93ff9f4daa797ed6e38ed64bf6a1f010000000000000000831061429e577a184f03e93ff9f4daa797ed6e38ed64bf6a1f010000000000000000838161429457614293615c95565b5b0492506040810190505b6d04ee2d6d415b85acef810000000083106142db576d04ee2d6d415b85acef810000000083816142d1576142d0615c95565b5b0492506020810190505b662386f26fc10000831061430a57662386f26fc100008381614300576142ff615c95565b5b0492506010810190505b6305f5e1008310614333576305f5e100838161432957614328615c95565b5b0492506008810190505b612710831061435857612710838161434e5761434d615c95565b5b0492506004810190505b6064831061437b576064838161437157614370615c95565b5b0492506002810190505b600a831061438a576001810190505b80915050919050565b6040518060600160405280600073ffffffffffffffffffffffffffffffffffffffff168152602001606081526020016000151581525090565b604051806080016040528060608152602001600073ffffffffffffffffffffffffffffffffffffffff168152602001606081526020016000151581525090565b6040518060a0016040528060608152602001606081526020016000815260200160008152602001600073ffffffffffffffffffffffffffffffffffffffff1681525090565b60405180608001604052806060815260200160608152602001606081526020016000151581525090565b6000604051905090565b600080fd5b600080fd5b60007fffffffff0000000000000000000000000000000000000000000000000000000082169050919050565b6144c48161448f565b81146144cf57600080fd5b50565b6000813590506144e1816144bb565b92915050565b6000602082840312156144fd576144fc614485565b5b600061450b848285016144d2565b91505092915050565b60008115159050919050565b61452981614514565b82525050565b60006020820190506145446000830184614520565b92915050565b600081519050919050565b600082825260208201905092915050565b60005b83811015614584578082015181840152602081019050614569565b60008484015250505050565b6000601f19601f8301169050919050565b60006145ac8261454a565b6145b68185614555565b93506145c6818560208601614566565b6145cf81614590565b840191505092915050565b600060208201905081810360008301526145f481846145a1565b905092915050565b6000819050919050565b61460f816145fc565b811461461a57600080fd5b50565b60008135905061462c81614606565b92915050565b60006020828403121561464857614647614485565b5b60006146568482850161461d565b91505092915050565b600073ffffffffffffffffffffffffffffffffffffffff82169050919050565b600061468a8261465f565b9050919050565b61469a8161467f565b82525050565b60006020820190506146b56000830184614691565b92915050565b6146c48161467f565b81146146cf57600080fd5b50565b6000813590506146e1816146bb565b92915050565b600080604083850312156146fe576146fd614485565b5b600061470c858286016146d2565b925050602061471d8582860161461d565b9150509250929050565b614730816145fc565b82525050565b600060208201905061474b6000830184614727565b92915050565b60008060006060848603121561476a57614769614485565b5b6000614778868287016146d2565b9350506020614789868287016146d2565b925050604061479a8682870161461d565b9150509250925092565b600080fd5b600080fd5b7f4e487b7100000000000000000000000000000000000000000000000000000000600052604160045260246000fd5b6147e682614590565b810181811067ffffffffffffffff82111715614805576148046147ae565b5b80604052505050565b600061481861447b565b905061482482826147dd565b919050565b600067ffffffffffffffff821115614844576148436147ae565b5b61484d82614590565b9050602081019050919050565b82818337600083830152505050565b600061487c61487784614829565b61480e565b905082815260208101848484011115614898576148976147a9565b5b6148a384828561485a565b509392505050565b600082601f8301126148c0576148bf6147a4565b5b81356148d0848260208601614869565b91505092915050565b6000806000606084860312156148f2576148f1614485565b5b600084013567ffffffffffffffff8111156149105761490f61448a565b5b61491c868287016148ab565b935050602084013567ffffffffffffffff81111561493d5761493c61448a565b5b614949868287016148ab565b925050604084013567ffffffffffffffff81111561496a5761496961448a565b5b614976868287016148ab565b9150509250925092565b600081519050919050565b600082825260208201905092915050565b6000819050602082019050919050565b6149b58161467f565b82525050565b600082825260208201905092915050565b60006149d78261454a565b6149e181856149bb565b93506149f1818560208601614566565b6149fa81614590565b840191505092915050565b614a0e81614514565b82525050565b6000606083016000830151614a2c60008601826149ac565b5060208301518482036020860152614a4482826149cc565b9150506040830151614a596040860182614a05565b508091505092915050565b6000614a708383614a14565b905092915050565b6000602082019050919050565b6000614a9082614980565b614a9a818561498b565b935083602082028501614aac8561499c565b8060005b85811015614ae85784840389528151614ac98582614a64565b9450614ad483614a78565b925060208a01995050600181019050614ab0565b50829750879550505050505092915050565b60006020820190508181036000830152614b148184614a85565b905092915050565b600060208284031215614b3257614b31614485565b5b6000614b40848285016146d2565b91505092915050565b600081519050919050565b600082825260208201905092915050565b6000819050602082019050919050565b60006080830160008301518482036000860152614b9282826149cc565b9150506020830151614ba760208601826149ac565b5060408301518482036040860152614bbf82826149cc565b9150506060830151614bd46060860182614a05565b508091505092915050565b6000614beb8383614b75565b905092915050565b6000602082019050919050565b6000614c0b82614b49565b614c158185614b54565b935083602082028501614c2785614b65565b8060005b85811015614c635784840389528151614c448582614bdf565b9450614c4f83614bf3565b925060208a01995050600181019050614c2b565b50829750879550505050505092915050565b60006020820190508181036000830152614c8f8184614c00565b905092915050565b600080600060608486031215614cb057614caf614485565b5b600084013567ffffffffffffffff811115614cce57614ccd61448a565b5b614cda868287016148ab565b9350506020614ceb868287016146d2565b925050604084013567ffffffffffffffff811115614d0c57614d0b61448a565b5b614d18868287016148ab565b9150509250925092565b600060208284031215614d3857614d37614485565b5b600082013567ffffffffffffffff811115614d5657614d5561448a565b5b614d62848285016148ab565b91505092915050565b600067ffffffffffffffff82169050919050565b614d8881614d6b565b8114614d9357600080fd5b50565b600081359050614da581614d7f565b92915050565b600080600080600060a08688031215614dc757614dc6614485565b5b6000614dd5888289016146d2565b9550506020614de6888289016146d2565b945050604086013567ffffffffffffffff811115614e0757614e0661448a565b5b614e13888289016148ab565b935050606086013567ffffffffffffffff811115614e3457614e3361448a565b5b614e40888289016148ab565b9250506080614e5188828901614d96565b9150509295509295909350565b7f4e487b7100000000000000000000000000000000000000000000000000000000600052602160045260246000fd5b60038110614e9e57614e9d614e5e565b5b50565b6000819050614eaf82614e8d565b919050565b6000614ebf82614ea1565b9050919050565b614ecf81614eb4565b82525050565b6000602082019050614eea6000830184614ec6565b92915050565b60008060408385031215614f0757614f06614485565b5b6000614f15858286016146d2565b925050602083013567ffffffffffffffff811115614f3657614f3561448a565b5b614f42858286016148ab565b9150509250929050565b60008060008060808587031215614f6657614f65614485565b5b6000614f74878288016146d2565b945050602085013567ffffffffffffffff811115614f9557614f9461448a565b5b614fa1878288016148ab565b935050604085013567ffffffffffffffff811115614fc257614fc161448a565b5b614fce878288016148ab565b9250506060614fdf87828801614d96565b91505092959194509250565b614ff481614514565b8114614fff57600080fd5b50565b60008135905061501181614feb565b92915050565b6000806040838503121561502e5761502d614485565b5b600061503c858286016146d2565b925050602061504d85828601615002565b9150509250929050565b600067ffffffffffffffff821115615072576150716147ae565b5b61507b82614590565b9050602081019050919050565b600061509b61509684615057565b61480e565b9050828152602081018484840111156150b7576150b66147a9565b5b6150c284828561485a565b509392505050565b600082601f8301126150df576150de6147a4565b5b81356150ef848260208601615088565b91505092915050565b6000806000806080858703121561511257615111614485565b5b6000615120878288016146d2565b9450506020615131878288016146d2565b93505060406151428782880161461d565b925050606085013567ffffffffffffffff8111156151635761516261448a565b5b61516f878288016150ca565b91505092959194509250565b6000608083016000830151848203600086015261519882826149cc565b91505060208301516151ad60208601826149ac565b50604083015184820360408601526151c582826149cc565b91505060608301516151da6060860182614a05565b508091505092915050565b600060208201905081810360008301526151ff818461517b565b905092915050565b600081519050919050565b600082825260208201905092915050565b6000819050602082019050919050565b61523c816145fc565b82525050565b600060a083016000830151848203600086015261525f82826149cc565b9150506020830151848203602086015261527982826149cc565b915050604083015161528e6040860182615233565b5060608301516152a16060860182615233565b5060808301516152b460808601826149ac565b508091505092915050565b60006152cb8383615242565b905092915050565b6000602082019050919050565b60006152eb82615207565b6152f58185615212565b93508360208202850161530785615223565b8060005b85811015615343578484038952815161532485826152bf565b945061532f836152d3565b925060208a0199505060018101905061530b565b50829750879550505050505092915050565b6000602082019050818103600083015261536f81846152e0565b905092915050565b6000608083016000830151848203600086015261539482826149cc565b915050602083015184820360208601526153ae82826149cc565b915050604083015184820360408601526153c882826149cc565b91505060608301516153dd6060860182614a05565b508091505092915050565b600060208201905081810360008301526154028184615377565b905092915050565b60008060006060848603121561542357615422614485565b5b60006154318682870161461d565b9350506020615442868287016146d2565b925050604061545386828701614d96565b9150509250925092565b6000806040838503121561547457615473614485565b5b6000615482858286016146d2565b9250506020615493858286016146d2565b9150509250929050565b600060a08301600083015184820360008601526154ba82826149cc565b915050602083015184820360208601526154d482826149cc565b91505060408301516154e96040860182615233565b5060608301516154fc6060860182615233565b50608083015161550f60808601826149ac565b508091505092915050565b60006020820190508181036000830152615534818461549d565b905092915050565b7f4e487b7100000000000000000000000000000000000000000000000000000000600052602260045260246000fd5b6000600282049050600182168061558357607f821691505b6020821081036155965761559561553c565b5b50919050565b600081905092915050565b60006155b28261454a565b6155bc818561559c565b93506155cc818560208601614566565b80840191505092915050565b60006155e482846155a7565b915081905092915050565b60008190508160005260206000209050919050565b60006020601f8301049050919050565b600082821b905092915050565b6000600883026156517fffffffffffffffffffffffffffffffffffffffffffffffffffffffffffffffff82615614565b61565b8683615614565b95508019841693508086168417925050509392505050565b6000819050919050565b600061569861569361568e846145fc565b615673565b6145fc565b9050919050565b6000819050919050565b6156b28361567d565b6156c66156be8261569f565b848454615621565b825550505050565b600090565b6156db6156ce565b6156e68184846156a9565b505050565b5b8181101561570a576156ff6000826156d3565b6001810190506156ec565b5050565b601f82111561574f57615720816155ef565b61572984615604565b81016020851015615738578190505b61574c61574485615604565b8301826156eb565b50505b505050565b600082821c905092915050565b600061577260001984600802615754565b1980831691505092915050565b600061578b8383615761565b9150826002028217905092915050565b6157a48261454a565b67ffffffffffffffff8111156157bd576157bc6147ae565b5b6157c7825461556b565b6157d282828561570e565b600060209050601f83116001811461580557600084156157f3578287015190505b6157fd858261577f565b865550615865565b601f198416615813866155ef565b60005b8281101561583b57848901518255600182019150602085019450602081019050615816565b868310156158585784890151615854601f891682615761565b8355505b6001600288020188555050505b505050505050565b7f4e487b7100000000000000000000000000000000000000000000000000000000600052603260045260246000fd5b7f4e487b7100000000000000000000000000000000000000000000000000000000600052601160045260246000fd5b60006158d6826145fc565b91506158e1836145fc565b92508282019050808211156158f9576158f861589c565b5b92915050565b600061590a826145fc565b91507fffffffffffffffffffffffffffffffffffffffffffffffffffffffffffffffff820361593c5761593b61589c565b5b600182019050919050565b7f6c6f720000000000000000000000000000000000000000000000000000000000600082015250565b600061597d60038361559c565b915061598882615947565b600382019050919050565b600061599e82615970565b9150819050919050565b7f6772616465736865657400000000000000000000000000000000000000000000600082015250565b60006159de600a8361559c565b91506159e9826159a8565b600a82019050919050565b60006159ff826159d1565b9150819050919050565b7f6465677265650000000000000000000000000000000000000000000000000000600082015250565b6000615a3f60068361559c565b9150615a4a82615a09565b600682019050919050565b6000615a6082615a32565b9150819050919050565b7f6964636172640000000000000000000000000000000000000000000000000000600082015250565b6000615aa060068361559c565b9150615aab82615a6a565b600682019050919050565b6000615ac182615a93565b9150819050919050565b60008154615ad88161556b565b615ae2818661559c565b94506001821660008114615afd5760018114615b1257615b45565b60ff1983168652811515820286019350615b45565b615b1b856155ef565b60005b83811015615b3d57815481890152600182019150602081019050615b1e565b838801955050505b50505092915050565b6000615b5a8284615acb565b915081905092915050565b600081519050919050565b600082825260208201905092915050565b6000615b8c82615b65565b615b968185615b70565b9350615ba6818560208601614566565b615baf81614590565b840191505092915050565b6000608082019050615bcf6000830187614691565b615bdc6020830186614691565b615be96040830185614727565b8181036060830152615bfb8184615b81565b905095945050505050565b600081519050615c15816144bb565b92915050565b600060208284031215615c3157615c30614485565b5b6000615c3f84828501615c06565b91505092915050565b6000615c5482856155a7565b9150615c6082846155a7565b91508190509392505050565b6000604082019050615c816000830185614691565b615c8e6020830184614727565b9392505050565b7f4e487b7100000000000000000000000000000000000000000000000000000000600052601260045260246000fdfea264697066735822122027f92804c9ce14950504e71966f1908c53d1b3f0efb2cad601e4bea40e01fd9264736f6c63430008140033",
  "linkReferences": {},
  "deployedLinkReferences": {}
}